{
  "contractName": "PolygonForest",
  "abi": [
    {
      "inputs": [],
      "stateMutability": "nonpayable",
      "type": "constructor"
    },
    {
      "anonymous": false,
      "inputs": [
        {
          "indexed": true,
          "internalType": "address",
          "name": "owner",
          "type": "address"
        },
        {
          "indexed": true,
          "internalType": "address",
          "name": "approved",
          "type": "address"
        },
        {
          "indexed": true,
          "internalType": "uint256",
          "name": "tokenId",
          "type": "uint256"
        }
      ],
      "name": "Approval",
      "type": "event"
    },
    {
      "anonymous": false,
      "inputs": [
        {
          "indexed": true,
          "internalType": "address",
          "name": "owner",
          "type": "address"
        },
        {
          "indexed": true,
          "internalType": "address",
          "name": "operator",
          "type": "address"
        },
        {
          "indexed": false,
          "internalType": "bool",
          "name": "approved",
          "type": "bool"
        }
      ],
      "name": "ApprovalForAll",
      "type": "event"
    },
    {
      "anonymous": false,
      "inputs": [
        {
          "indexed": true,
          "internalType": "address",
          "name": "previousOwner",
          "type": "address"
        },
        {
          "indexed": true,
          "internalType": "address",
          "name": "newOwner",
          "type": "address"
        }
      ],
      "name": "OwnershipTransferred",
      "type": "event"
    },
    {
      "anonymous": false,
      "inputs": [
        {
          "indexed": true,
          "internalType": "address",
          "name": "from",
          "type": "address"
        },
        {
          "indexed": true,
          "internalType": "address",
          "name": "to",
          "type": "address"
        },
        {
          "indexed": true,
          "internalType": "uint256",
          "name": "tokenId",
          "type": "uint256"
        }
      ],
      "name": "Transfer",
      "type": "event"
    },
    {
      "inputs": [
        {
          "internalType": "address",
          "name": "to",
          "type": "address"
        },
        {
          "internalType": "uint256",
          "name": "tokenId",
          "type": "uint256"
        }
      ],
      "name": "approve",
      "outputs": [],
      "stateMutability": "nonpayable",
      "type": "function"
    },
    {
      "inputs": [
        {
          "internalType": "address",
          "name": "owner",
          "type": "address"
        }
      ],
      "name": "balanceOf",
      "outputs": [
        {
          "internalType": "uint256",
          "name": "",
          "type": "uint256"
        }
      ],
      "stateMutability": "view",
      "type": "function",
      "constant": true
    },
    {
      "inputs": [
        {
          "internalType": "uint256",
          "name": "tokenId",
          "type": "uint256"
        }
      ],
      "name": "getApproved",
      "outputs": [
        {
          "internalType": "address",
          "name": "",
          "type": "address"
        }
      ],
      "stateMutability": "view",
      "type": "function",
      "constant": true
    },
    {
      "inputs": [
        {
          "internalType": "address",
          "name": "owner",
          "type": "address"
        },
        {
          "internalType": "address",
          "name": "operator",
          "type": "address"
        }
      ],
      "name": "isApprovedForAll",
      "outputs": [
        {
          "internalType": "bool",
          "name": "",
          "type": "bool"
        }
      ],
      "stateMutability": "view",
      "type": "function",
      "constant": true
    },
    {
      "inputs": [],
      "name": "name",
      "outputs": [
        {
          "internalType": "string",
          "name": "",
          "type": "string"
        }
      ],
      "stateMutability": "view",
      "type": "function",
      "constant": true
    },
    {
      "inputs": [],
      "name": "owner",
      "outputs": [
        {
          "internalType": "address",
          "name": "",
          "type": "address"
        }
      ],
      "stateMutability": "view",
      "type": "function",
      "constant": true
    },
    {
      "inputs": [
        {
          "internalType": "uint256",
          "name": "tokenId",
          "type": "uint256"
        }
      ],
      "name": "ownerOf",
      "outputs": [
        {
          "internalType": "address",
          "name": "",
          "type": "address"
        }
      ],
      "stateMutability": "view",
      "type": "function",
      "constant": true
    },
    {
      "inputs": [],
      "name": "renounceOwnership",
      "outputs": [],
      "stateMutability": "nonpayable",
      "type": "function"
    },
    {
      "inputs": [
        {
          "internalType": "address",
          "name": "from",
          "type": "address"
        },
        {
          "internalType": "address",
          "name": "to",
          "type": "address"
        },
        {
          "internalType": "uint256",
          "name": "tokenId",
          "type": "uint256"
        }
      ],
      "name": "safeTransferFrom",
      "outputs": [],
      "stateMutability": "nonpayable",
      "type": "function"
    },
    {
      "inputs": [
        {
          "internalType": "address",
          "name": "from",
          "type": "address"
        },
        {
          "internalType": "address",
          "name": "to",
          "type": "address"
        },
        {
          "internalType": "uint256",
          "name": "tokenId",
          "type": "uint256"
        },
        {
          "internalType": "bytes",
          "name": "_data",
          "type": "bytes"
        }
      ],
      "name": "safeTransferFrom",
      "outputs": [],
      "stateMutability": "nonpayable",
      "type": "function"
    },
    {
      "inputs": [
        {
          "internalType": "address",
          "name": "operator",
          "type": "address"
        },
        {
          "internalType": "bool",
          "name": "approved",
          "type": "bool"
        }
      ],
      "name": "setApprovalForAll",
      "outputs": [],
      "stateMutability": "nonpayable",
      "type": "function"
    },
    {
      "inputs": [
        {
          "internalType": "bytes4",
          "name": "interfaceId",
          "type": "bytes4"
        }
      ],
      "name": "supportsInterface",
      "outputs": [
        {
          "internalType": "bool",
          "name": "",
          "type": "bool"
        }
      ],
      "stateMutability": "view",
      "type": "function",
      "constant": true
    },
    {
      "inputs": [],
      "name": "symbol",
      "outputs": [
        {
          "internalType": "string",
          "name": "",
          "type": "string"
        }
      ],
      "stateMutability": "view",
      "type": "function",
      "constant": true
    },
    {
      "inputs": [
        {
          "internalType": "uint256",
          "name": "tokenId",
          "type": "uint256"
        }
      ],
      "name": "tokenURI",
      "outputs": [
        {
          "internalType": "string",
          "name": "",
          "type": "string"
        }
      ],
      "stateMutability": "view",
      "type": "function",
      "constant": true
    },
    {
      "inputs": [
        {
          "internalType": "address",
          "name": "from",
          "type": "address"
        },
        {
          "internalType": "address",
          "name": "to",
          "type": "address"
        },
        {
          "internalType": "uint256",
          "name": "tokenId",
          "type": "uint256"
        }
      ],
      "name": "transferFrom",
      "outputs": [],
      "stateMutability": "nonpayable",
      "type": "function"
    },
    {
      "inputs": [
        {
          "internalType": "address",
          "name": "newOwner",
          "type": "address"
        }
      ],
      "name": "transferOwnership",
      "outputs": [],
      "stateMutability": "nonpayable",
      "type": "function"
    },
    {
      "inputs": [
        {
          "internalType": "uint256",
          "name": "_id",
          "type": "uint256"
        }
      ],
      "name": "chop",
      "outputs": [],
      "stateMutability": "nonpayable",
      "type": "function"
    },
    {
      "inputs": [],
      "name": "cashout",
      "outputs": [],
      "stateMutability": "payable",
      "type": "function",
      "payable": true
    },
    {
      "inputs": [
        {
          "internalType": "uint8",
          "name": "_model",
          "type": "uint8"
        }
      ],
      "name": "mintTool",
      "outputs": [],
      "stateMutability": "payable",
      "type": "function",
      "payable": true
    },
    {
      "inputs": [],
      "name": "getForestSize",
      "outputs": [
        {
          "internalType": "uint256",
          "name": "",
          "type": "uint256"
        }
      ],
      "stateMutability": "view",
      "type": "function",
      "constant": true
    },
    {
      "inputs": [
        {
          "internalType": "uint256",
          "name": "_id",
          "type": "uint256"
        }
      ],
      "name": "getTool",
      "outputs": [
        {
          "components": [
            {
              "internalType": "uint256",
              "name": "id",
              "type": "uint256"
            },
            {
              "internalType": "uint8",
              "name": "model",
              "type": "uint8"
            },
            {
              "internalType": "uint32",
              "name": "chopTime",
              "type": "uint32"
            },
            {
              "internalType": "uint8",
              "name": "logsPerChop",
              "type": "uint8"
            },
            {
              "internalType": "uint256",
              "name": "nextReady",
              "type": "uint256"
            }
          ],
          "internalType": "struct PolygonForest.Tool",
          "name": "",
          "type": "tuple"
        }
      ],
      "stateMutability": "view",
      "type": "function",
      "constant": true
    },
    {
      "inputs": [
        {
          "internalType": "address",
          "name": "_address",
          "type": "address"
        }
      ],
      "name": "getOwnedTools",
      "outputs": [
        {
          "components": [
            {
              "internalType": "uint256",
              "name": "id",
              "type": "uint256"
            },
            {
              "internalType": "uint8",
              "name": "model",
              "type": "uint8"
            },
            {
              "internalType": "uint32",
              "name": "chopTime",
              "type": "uint32"
            },
            {
              "internalType": "uint8",
              "name": "logsPerChop",
              "type": "uint8"
            },
            {
              "internalType": "uint256",
              "name": "nextReady",
              "type": "uint256"
            }
          ],
          "internalType": "struct PolygonForest.Tool[]",
          "name": "",
          "type": "tuple[]"
        }
      ],
      "stateMutability": "view",
      "type": "function",
      "constant": true
    },
    {
      "inputs": [],
      "name": "getLogBalance",
      "outputs": [
        {
          "internalType": "uint256",
          "name": "",
          "type": "uint256"
        }
      ],
      "stateMutability": "view",
      "type": "function",
      "constant": true
    },
    {
      "inputs": [],
      "name": "withdraw",
      "outputs": [],
      "stateMutability": "payable",
      "type": "function",
      "payable": true
    }
  ],
  "bytecode": "0x60806040526040518060800160405280600066ffffffffffffff16815260200166038d7ea4c6800066ffffffffffffff168152602001662386f26fc1000066ffffffffffffff168152602001667c58508723800066ffffffffffffff168152506007906004620000719291906200025f565b506040518060800160405280600061ffff16815260200161019061ffff168152602001610af061ffff16815260200161271061ffff168152506008906004620000bc929190620002bc565b50348015620000ca57600080fd5b506040518060400160405280600d81526020017f506f6c79676f6e466f72657374000000000000000000000000000000000000008152506040518060400160405280600681526020017f464f52455354000000000000000000000000000000000000000000000000000081525081600090805190602001906200014f92919062000314565b5080600190805190602001906200016892919062000314565b5050506200018b6200017f6200019160201b60201c565b6200019960201b60201c565b62000429565b600033905090565b6000600660009054906101000a900473ffffffffffffffffffffffffffffffffffffffff16905081600660006101000a81548173ffffffffffffffffffffffffffffffffffffffff021916908373ffffffffffffffffffffffffffffffffffffffff1602179055508173ffffffffffffffffffffffffffffffffffffffff168173ffffffffffffffffffffffffffffffffffffffff167f8be0079c531659141344cd1fd0a4f28419497f9722a3daafe3b4186f6b6457e060405160405180910390a35050565b828054828255906000526020600020908101928215620002a9579160200282015b82811115620002a8578251829066ffffffffffffff1690559160200191906001019062000280565b5b509050620002b89190620003a5565b5090565b82805482825590600052602060002090810192821562000301579160200282015b8281111562000300578251829061ffff16905591602001919060010190620002dd565b5b509050620003109190620003a5565b5090565b8280546200032290620003c4565b90600052602060002090601f01602090048101928262000346576000855562000392565b82601f106200036157805160ff191683800117855562000392565b8280016001018555821562000392579182015b828111156200039157825182559160200191906001019062000374565b5b509050620003a19190620003a5565b5090565b5b80821115620003c0576000816000905550600101620003a6565b5090565b60006002820490506001821680620003dd57607f821691505b60208210811415620003f457620003f3620003fa565b5b50919050565b7f4e487b7100000000000000000000000000000000000000000000000000000000600052602260045260246000fd5b613c0e80620004396000396000f3fe60806040526004361061014b5760003560e01c8063715018a6116100b6578063af4e98da1161006f578063af4e98da14610441578063b88d4fde1461046c578063c87b56dd14610495578063d285af53146104d2578063e985e9c51461050f578063f2fde38b1461054c5761014b565b8063715018a6146103645780637b6b093b1461037b57806384054d3d146103b85780638da5cb5b146103c257806395d89b41146103ed578063a22cb465146104185761014b565b80633ccfd60b116101085780633ccfd60b1461027257806342842e0e1461027c5780634a1f8186146102a557806362e053e7146102c15780636352211e146102ea57806370a08231146103275761014b565b806301ffc9a71461015057806306fdde031461018d578063081812fc146101b8578063095ea7b3146101f557806323b872dd1461021e5780632d7982ec14610247575b600080fd5b34801561015c57600080fd5b5061017760048036038101906101729190612918565b610575565b60405161018491906133f4565b60405180910390f35b34801561019957600080fd5b506101a2610657565b6040516101af919061340f565b60405180910390f35b3480156101c457600080fd5b506101df60048036038101906101da919061296a565b6106e9565b6040516101ec919061336b565b60405180910390f35b34801561020157600080fd5b5061021c600480360381019061021791906128dc565b61076e565b005b34801561022a57600080fd5b50610245600480360381019061024091906127d6565b610886565b005b34801561025357600080fd5b5061025c6108e6565b604051610269919061370c565b60405180910390f35b61027a6108f0565b005b34801561028857600080fd5b506102a3600480360381019061029e91906127d6565b6109c2565b005b6102bf60048036038101906102ba9190612993565b6109e2565b005b3480156102cd57600080fd5b506102e860048036038101906102e3919061296a565b610ba0565b005b3480156102f657600080fd5b50610311600480360381019061030c919061296a565b610de3565b60405161031e919061336b565b60405180910390f35b34801561033357600080fd5b5061034e60048036038101906103499190612771565b610e95565b60405161035b919061370c565b60405180910390f35b34801561037057600080fd5b50610379610f4d565b005b34801561038757600080fd5b506103a2600480360381019061039d9190612771565b610fd5565b6040516103af91906133d2565b60405180910390f35b6103c0611275565b005b3480156103ce57600080fd5b506103d761136f565b6040516103e4919061336b565b60405180910390f35b3480156103f957600080fd5b50610402611399565b60405161040f919061340f565b60405180910390f35b34801561042457600080fd5b5061043f600480360381019061043a91906128a0565b61142b565b005b34801561044d57600080fd5b506104566115ac565b604051610463919061370c565b60405180910390f35b34801561047857600080fd5b50610493600480360381019061048e9190612825565b6115f3565b005b3480156104a157600080fd5b506104bc60048036038101906104b7919061296a565b611655565b6040516104c9919061340f565b60405180910390f35b3480156104de57600080fd5b506104f960048036038101906104f4919061296a565b6116fc565b60405161050691906136f1565b60405180910390f35b34801561051b57600080fd5b506105366004803603810190610531919061279a565b61181a565b60405161054391906133f4565b60405180910390f35b34801561055857600080fd5b50610573600480360381019061056e9190612771565b6118ae565b005b60007f80ac58cd000000000000000000000000000000000000000000000000000000007bffffffffffffffffffffffffffffffffffffffffffffffffffffffff1916827bffffffffffffffffffffffffffffffffffffffffffffffffffffffff1916148061064057507f5b5e139f000000000000000000000000000000000000000000000000000000007bffffffffffffffffffffffffffffffffffffffffffffffffffffffff1916827bffffffffffffffffffffffffffffffffffffffffffffffffffffffff1916145b80610650575061064f826119a6565b5b9050919050565b606060008054610666906139ec565b80601f0160208091040260200160405190810160405280929190818152602001828054610692906139ec565b80156106df5780601f106106b4576101008083540402835291602001916106df565b820191906000526020600020905b8154815290600101906020018083116106c257829003601f168201915b5050505050905090565b60006106f482611a10565b610733576040517f08c379a000000000000000000000000000000000000000000000000000000000815260040161072a906135f1565b60405180910390fd5b6004600083815260200190815260200160002060009054906101000a900473ffffffffffffffffffffffffffffffffffffffff169050919050565b600061077982610de3565b90508073ffffffffffffffffffffffffffffffffffffffff168373ffffffffffffffffffffffffffffffffffffffff1614156107ea576040517f08c379a00000000000000000000000000000000000000000000000000000000081526004016107e190613691565b60405180910390fd5b8073ffffffffffffffffffffffffffffffffffffffff16610809611a7c565b73ffffffffffffffffffffffffffffffffffffffff161480610838575061083781610832611a7c565b61181a565b5b610877576040517f08c379a000000000000000000000000000000000000000000000000000000000815260040161086e90613531565b60405180910390fd5b6108818383611a84565b505050565b610897610891611a7c565b82611b3d565b6108d6576040517f08c379a00000000000000000000000000000000000000000000000000000000081526004016108cd906136b1565b60405180910390fd5b6108e1838383611c1b565b505050565b6000600954905090565b6108f8611a7c565b73ffffffffffffffffffffffffffffffffffffffff1661091661136f565b73ffffffffffffffffffffffffffffffffffffffff161461096c576040517f08c379a000000000000000000000000000000000000000000000000000000000815260040161096390613611565b60405180910390fd5b600061097661136f565b90508073ffffffffffffffffffffffffffffffffffffffff166108fc479081150290604051600060405180830381858888f193505050501580156109be573d6000803e3d6000fd5b5050565b6109dd838383604051806020016040528060008152506115f3565b505050565b60008160ff16101580156109f9575060048160ff16105b610a38576040517f08c379a0000000000000000000000000000000000000000000000000000000008152600401610a2f90613471565b60405180910390fd5b60078160ff1681548110610a75577f4e487b7100000000000000000000000000000000000000000000000000000000600052603260045260246000fd5b9060005260206000200154341015610ac2576040517f08c379a0000000000000000000000000000000000000000000000000000000008152600401610ab9906135d1565b60405180910390fd5b60008160ff161415610ae157610adc8161a8c06001611e77565b610b3d565b60018160ff161415610b0057610afb81611c206005611e77565b610b3c565b60028160ff161415610b1f57610b1a816107086002611e77565b610b3b565b60038160ff161415610b3a57610b3981610e106032611e77565b5b5b5b5b60088160ff1681548110610b7a577f4e487b7100000000000000000000000000000000000000000000000000000000600052603260045260246000fd5b906000526020600020015460096000828254610b969190613804565b9250508190555050565b3373ffffffffffffffffffffffffffffffffffffffff16610bc082610de3565b73ffffffffffffffffffffffffffffffffffffffff1614610c16576040517f08c379a0000000000000000000000000000000000000000000000000000000008152600401610c0d90613431565b60405180910390fd5b6000600a8281548110610c52577f4e487b7100000000000000000000000000000000000000000000000000000000600052603260045260246000fd5b906000526020600020906003020190508060020154421015610ca9576040517f08c379a0000000000000000000000000000000000000000000000000000000008152600401610ca0906136d1565b60405180910390fd5b600060095411610cee576040517f08c379a0000000000000000000000000000000000000000000000000000000008152600401610ce590613631565b60405180910390fd5b8060010160019054906101000a900463ffffffff1663ffffffff1642610d149190613804565b81600201819055508060010160059054906101000a900460ff1660ff16600b60003373ffffffffffffffffffffffffffffffffffffffff1673ffffffffffffffffffffffffffffffffffffffff1681526020019081526020016000206000828254610d7f9190613804565b925050819055508060010160059054906101000a900460ff1660ff166009541015610db1576000600981905550610ddf565b8060010160059054906101000a900460ff1660ff1660096000828254610dd791906138e5565b925050819055505b5050565b6000806002600084815260200190815260200160002060009054906101000a900473ffffffffffffffffffffffffffffffffffffffff169050600073ffffffffffffffffffffffffffffffffffffffff168173ffffffffffffffffffffffffffffffffffffffff161415610e8c576040517f08c379a0000000000000000000000000000000000000000000000000000000008152600401610e8390613571565b60405180910390fd5b80915050919050565b60008073ffffffffffffffffffffffffffffffffffffffff168273ffffffffffffffffffffffffffffffffffffffff161415610f06576040517f08c379a0000000000000000000000000000000000000000000000000000000008152600401610efd90613551565b60405180910390fd5b600360008373ffffffffffffffffffffffffffffffffffffffff1673ffffffffffffffffffffffffffffffffffffffff168152602001908152602001600020549050919050565b610f55611a7c565b73ffffffffffffffffffffffffffffffffffffffff16610f7361136f565b73ffffffffffffffffffffffffffffffffffffffff1614610fc9576040517f08c379a0000000000000000000000000000000000000000000000000000000008152600401610fc090613611565b60405180910390fd5b610fd36000611f74565b565b60606000610fe283610e95565b9050600081141561107057600067ffffffffffffffff81111561102e577f4e487b7100000000000000000000000000000000000000000000000000000000600052604160045260246000fd5b60405190808252806020026020018201604052801561106757816020015b611054612650565b81526020019060019003908161104c5790505b50915050611270565b60008167ffffffffffffffff8111156110b2577f4e487b7100000000000000000000000000000000000000000000000000000000600052604160045260246000fd5b6040519080825280602002602001820160405280156110eb57816020015b6110d8612650565b8152602001906001900390816110d05790505b5090506000805b600a80549050811015611268578573ffffffffffffffffffffffffffffffffffffffff1661111f82610de3565b73ffffffffffffffffffffffffffffffffffffffff16141561125557600a8181548110611175577f4e487b7100000000000000000000000000000000000000000000000000000000600052603260045260246000fd5b90600052602060002090600302016040518060a0016040529081600082015481526020016001820160009054906101000a900460ff1660ff1660ff1681526020016001820160019054906101000a900463ffffffff1663ffffffff1663ffffffff1681526020016001820160059054906101000a900460ff1660ff1660ff16815260200160028201548152505083838151811061123b577f4e487b7100000000000000000000000000000000000000000000000000000000600052603260045260246000fd5b6020026020010181905250818061125190613a1e565b9250505b808061126090613a1e565b9150506110f2565b508193505050505b919050565b6000600b60003373ffffffffffffffffffffffffffffffffffffffff1673ffffffffffffffffffffffffffffffffffffffff168152602001908152602001600020549050600081111561136c576000650246139ca8009050600082826112db919061388b565b90503373ffffffffffffffffffffffffffffffffffffffff166108fc829081150290604051600060405180830381858888f19350505050158015611323573d6000803e3d6000fd5b506000600b60003373ffffffffffffffffffffffffffffffffffffffff1673ffffffffffffffffffffffffffffffffffffffff1681526020019081526020016000208190555050505b50565b6000600660009054906101000a900473ffffffffffffffffffffffffffffffffffffffff16905090565b6060600180546113a8906139ec565b80601f01602080910402602001604051908101604052809291908181526020018280546113d4906139ec565b80156114215780601f106113f657610100808354040283529160200191611421565b820191906000526020600020905b81548152906001019060200180831161140457829003601f168201915b5050505050905090565b611433611a7c565b73ffffffffffffffffffffffffffffffffffffffff168273ffffffffffffffffffffffffffffffffffffffff1614156114a1576040517f08c379a0000000000000000000000000000000000000000000000000000000008152600401611498906134f1565b60405180910390fd5b80600560006114ae611a7c565b73ffffffffffffffffffffffffffffffffffffffff1673ffffffffffffffffffffffffffffffffffffffff16815260200190815260200160002060008473ffffffffffffffffffffffffffffffffffffffff1673ffffffffffffffffffffffffffffffffffffffff16815260200190815260200160002060006101000a81548160ff0219169083151502179055508173ffffffffffffffffffffffffffffffffffffffff1661155b611a7c565b73ffffffffffffffffffffffffffffffffffffffff167f17307eab39ab6107e8899845ad3d59bd9653f200f220920489ca2b5937696c31836040516115a091906133f4565b60405180910390a35050565b6000600b60003373ffffffffffffffffffffffffffffffffffffffff1673ffffffffffffffffffffffffffffffffffffffff16815260200190815260200160002054905090565b6116046115fe611a7c565b83611b3d565b611643576040517f08c379a000000000000000000000000000000000000000000000000000000000815260040161163a906136b1565b60405180910390fd5b61164f8484848461203a565b50505050565b606061166082611a10565b61169f576040517f08c379a000000000000000000000000000000000000000000000000000000000815260040161169690613671565b60405180910390fd5b60006116a9612096565b905060008151116116c957604051806020016040528060008152506116f4565b806116d3846120ad565b6040516020016116e4929190613347565b6040516020818303038152906040525b915050919050565b611704612650565b61170d82611a10565b61174c576040517f08c379a000000000000000000000000000000000000000000000000000000000815260040161174390613591565b60405180910390fd5b600a8281548110611786577f4e487b7100000000000000000000000000000000000000000000000000000000600052603260045260246000fd5b90600052602060002090600302016040518060a0016040529081600082015481526020016001820160009054906101000a900460ff1660ff1660ff1681526020016001820160019054906101000a900463ffffffff1663ffffffff1663ffffffff1681526020016001820160059054906101000a900460ff1660ff1660ff1681526020016002820154815250509050919050565b6000600560008473ffffffffffffffffffffffffffffffffffffffff1673ffffffffffffffffffffffffffffffffffffffff16815260200190815260200160002060008373ffffffffffffffffffffffffffffffffffffffff1673ffffffffffffffffffffffffffffffffffffffff16815260200190815260200160002060009054906101000a900460ff16905092915050565b6118b6611a7c565b73ffffffffffffffffffffffffffffffffffffffff166118d461136f565b73ffffffffffffffffffffffffffffffffffffffff161461192a576040517f08c379a000000000000000000000000000000000000000000000000000000000815260040161192190613611565b60405180910390fd5b600073ffffffffffffffffffffffffffffffffffffffff168173ffffffffffffffffffffffffffffffffffffffff16141561199a576040517f08c379a000000000000000000000000000000000000000000000000000000000815260040161199190613491565b60405180910390fd5b6119a381611f74565b50565b60007f01ffc9a7000000000000000000000000000000000000000000000000000000007bffffffffffffffffffffffffffffffffffffffffffffffffffffffff1916827bffffffffffffffffffffffffffffffffffffffffffffffffffffffff1916149050919050565b60008073ffffffffffffffffffffffffffffffffffffffff166002600084815260200190815260200160002060009054906101000a900473ffffffffffffffffffffffffffffffffffffffff1673ffffffffffffffffffffffffffffffffffffffff1614159050919050565b600033905090565b816004600083815260200190815260200160002060006101000a81548173ffffffffffffffffffffffffffffffffffffffff021916908373ffffffffffffffffffffffffffffffffffffffff160217905550808273ffffffffffffffffffffffffffffffffffffffff16611af783610de3565b73ffffffffffffffffffffffffffffffffffffffff167f8c5be1e5ebec7d5bd14f71427d1e84f3dd0314c0f7b2291e5b200ac8c7c3b92560405160405180910390a45050565b6000611b4882611a10565b611b87576040517f08c379a0000000000000000000000000000000000000000000000000000000008152600401611b7e90613511565b60405180910390fd5b6000611b9283610de3565b90508073ffffffffffffffffffffffffffffffffffffffff168473ffffffffffffffffffffffffffffffffffffffff161480611c0157508373ffffffffffffffffffffffffffffffffffffffff16611be9846106e9565b73ffffffffffffffffffffffffffffffffffffffff16145b80611c125750611c11818561181a565b5b91505092915050565b8273ffffffffffffffffffffffffffffffffffffffff16611c3b82610de3565b73ffffffffffffffffffffffffffffffffffffffff1614611c91576040517f08c379a0000000000000000000000000000000000000000000000000000000008152600401611c8890613651565b60405180910390fd5b600073ffffffffffffffffffffffffffffffffffffffff168273ffffffffffffffffffffffffffffffffffffffff161415611d01576040517f08c379a0000000000000000000000000000000000000000000000000000000008152600401611cf8906134d1565b60405180910390fd5b611d0c83838361225a565b611d17600082611a84565b6001600360008573ffffffffffffffffffffffffffffffffffffffff1673ffffffffffffffffffffffffffffffffffffffff1681526020019081526020016000206000828254611d6791906138e5565b925050819055506001600360008473ffffffffffffffffffffffffffffffffffffffff1673ffffffffffffffffffffffffffffffffffffffff1681526020019081526020016000206000828254611dbe9190613804565b92505081905550816002600083815260200190815260200160002060006101000a81548173ffffffffffffffffffffffffffffffffffffffff021916908373ffffffffffffffffffffffffffffffffffffffff160217905550808273ffffffffffffffffffffffffffffffffffffffff168473ffffffffffffffffffffffffffffffffffffffff167fddf252ad1be2c89b69c2b068fc378daa952ba7f163c4a11628f55a4df523b3ef60405160405180910390a4505050565b6000600a80549050905060006040518060a001604052808381526020018660ff1681526020018563ffffffff1681526020018460ff168152602001428152509050611ec2338361225f565b600a8190806001815401808255809150506001900390600052602060002090600302016000909190919091506000820151816000015560208201518160010160006101000a81548160ff021916908360ff16021790555060408201518160010160016101000a81548163ffffffff021916908363ffffffff16021790555060608201518160010160056101000a81548160ff021916908360ff1602179055506080820151816002015550505050505050565b6000600660009054906101000a900473ffffffffffffffffffffffffffffffffffffffff16905081600660006101000a81548173ffffffffffffffffffffffffffffffffffffffff021916908373ffffffffffffffffffffffffffffffffffffffff1602179055508173ffffffffffffffffffffffffffffffffffffffff168173ffffffffffffffffffffffffffffffffffffffff167f8be0079c531659141344cd1fd0a4f28419497f9722a3daafe3b4186f6b6457e060405160405180910390a35050565b612045848484611c1b565b6120518484848461227d565b612090576040517f08c379a000000000000000000000000000000000000000000000000000000000815260040161208790613451565b60405180910390fd5b50505050565b606060405180602001604052806000815250905090565b606060008214156120f5576040518060400160405280600181526020017f30000000000000000000000000000000000000000000000000000000000000008152509050612255565b600082905060005b6000821461212757808061211090613a1e565b915050600a82612120919061385a565b91506120fd565b60008167ffffffffffffffff811115612169577f4e487b7100000000000000000000000000000000000000000000000000000000600052604160045260246000fd5b6040519080825280601f01601f19166020018201604052801561219b5781602001600182028036833780820191505090505b5090505b6000851461224e576001826121b491906138e5565b9150600a856121c39190613a67565b60306121cf9190613804565b60f81b81838151811061220b577f4e487b7100000000000000000000000000000000000000000000000000000000600052603260045260246000fd5b60200101907effffffffffffffffffffffffffffffffffffffffffffffffffffffffffffff1916908160001a905350600a85612247919061385a565b945061219f565b8093505050505b919050565b505050565b612279828260405180602001604052806000815250612414565b5050565b600061229e8473ffffffffffffffffffffffffffffffffffffffff1661246f565b15612407578373ffffffffffffffffffffffffffffffffffffffff1663150b7a026122c7611a7c565b8786866040518563ffffffff1660e01b81526004016122e99493929190613386565b602060405180830381600087803b15801561230357600080fd5b505af192505050801561233457506040513d601f19601f820116820180604052508101906123319190612941565b60015b6123b7573d8060008114612364576040519150601f19603f3d011682016040523d82523d6000602084013e612369565b606091505b506000815114156123af576040517f08c379a00000000000000000000000000000000000000000000000000000000081526004016123a690613451565b60405180910390fd5b805181602001fd5b63150b7a0260e01b7bffffffffffffffffffffffffffffffffffffffffffffffffffffffff1916817bffffffffffffffffffffffffffffffffffffffffffffffffffffffff19161491505061240c565b600190505b949350505050565b61241e8383612482565b61242b600084848461227d565b61246a576040517f08c379a000000000000000000000000000000000000000000000000000000000815260040161246190613451565b60405180910390fd5b505050565b600080823b905060008111915050919050565b600073ffffffffffffffffffffffffffffffffffffffff168273ffffffffffffffffffffffffffffffffffffffff1614156124f2576040517f08c379a00000000000000000000000000000000000000000000000000000000081526004016124e9906135b1565b60405180910390fd5b6124fb81611a10565b1561253b576040517f08c379a0000000000000000000000000000000000000000000000000000000008152600401612532906134b1565b60405180910390fd5b6125476000838361225a565b6001600360008473ffffffffffffffffffffffffffffffffffffffff1673ffffffffffffffffffffffffffffffffffffffff16815260200190815260200160002060008282546125979190613804565b92505081905550816002600083815260200190815260200160002060006101000a81548173ffffffffffffffffffffffffffffffffffffffff021916908373ffffffffffffffffffffffffffffffffffffffff160217905550808273ffffffffffffffffffffffffffffffffffffffff16600073ffffffffffffffffffffffffffffffffffffffff167fddf252ad1be2c89b69c2b068fc378daa952ba7f163c4a11628f55a4df523b3ef60405160405180910390a45050565b6040518060a0016040528060008152602001600060ff168152602001600063ffffffff168152602001600060ff168152602001600081525090565b600061269e61269984613758565b613727565b9050828152602081018484840111156126b657600080fd5b6126c18482856139aa565b509392505050565b6000813590506126d881613b65565b92915050565b6000813590506126ed81613b7c565b92915050565b60008135905061270281613b93565b92915050565b60008151905061271781613b93565b92915050565b600082601f83011261272e57600080fd5b813561273e84826020860161268b565b91505092915050565b60008135905061275681613baa565b92915050565b60008135905061276b81613bc1565b92915050565b60006020828403121561278357600080fd5b6000612791848285016126c9565b91505092915050565b600080604083850312156127ad57600080fd5b60006127bb858286016126c9565b92505060206127cc858286016126c9565b9150509250929050565b6000806000606084860312156127eb57600080fd5b60006127f9868287016126c9565b935050602061280a868287016126c9565b925050604061281b86828701612747565b9150509250925092565b6000806000806080858703121561283b57600080fd5b6000612849878288016126c9565b945050602061285a878288016126c9565b935050604061286b87828801612747565b925050606085013567ffffffffffffffff81111561288857600080fd5b6128948782880161271d565b91505092959194509250565b600080604083850312156128b357600080fd5b60006128c1858286016126c9565b92505060206128d2858286016126de565b9150509250929050565b600080604083850312156128ef57600080fd5b60006128fd858286016126c9565b925050602061290e85828601612747565b9150509250929050565b60006020828403121561292a57600080fd5b6000612938848285016126f3565b91505092915050565b60006020828403121561295357600080fd5b600061296184828501612708565b91505092915050565b60006020828403121561297c57600080fd5b600061298a84828501612747565b91505092915050565b6000602082840312156129a557600080fd5b60006129b38482850161275c565b91505092915050565b60006129c8838361323b565b60a08301905092915050565b6129dd81613919565b82525050565b60006129ee82613798565b6129f881856137c6565b9350612a0383613788565b8060005b83811015612a34578151612a1b88826129bc565b9750612a26836137b9565b925050600181019050612a07565b5085935050505092915050565b612a4a8161392b565b82525050565b6000612a5b826137a3565b612a6581856137d7565b9350612a758185602086016139b9565b612a7e81613b54565b840191505092915050565b6000612a94826137ae565b612a9e81856137e8565b9350612aae8185602086016139b9565b612ab781613b54565b840191505092915050565b6000612acd826137ae565b612ad781856137f9565b9350612ae78185602086016139b9565b80840191505092915050565b6000612b006018836137e8565b91507f596f7520646f206e6f74206f776e207468697320746f6f6c00000000000000006000830152602082019050919050565b6000612b406032836137e8565b91507f4552433732313a207472616e7366657220746f206e6f6e20455243373231526560008301527f63656976657220696d706c656d656e74657200000000000000000000000000006020830152604082019050919050565b6000612ba66019836137e8565b91507f4d6f64656c206e756d626572206973206e6f742076616c6964000000000000006000830152602082019050919050565b6000612be66026836137e8565b91507f4f776e61626c653a206e6577206f776e657220697320746865207a65726f206160008301527f64647265737300000000000000000000000000000000000000000000000000006020830152604082019050919050565b6000612c4c601c836137e8565b91507f4552433732313a20746f6b656e20616c7265616479206d696e746564000000006000830152602082019050919050565b6000612c8c6024836137e8565b91507f4552433732313a207472616e7366657220746f20746865207a65726f2061646460008301527f72657373000000000000000000000000000000000000000000000000000000006020830152604082019050919050565b6000612cf26019836137e8565b91507f4552433732313a20617070726f766520746f2063616c6c6572000000000000006000830152602082019050919050565b6000612d32602c836137e8565b91507f4552433732313a206f70657261746f7220717565727920666f72206e6f6e657860008301527f697374656e7420746f6b656e00000000000000000000000000000000000000006020830152604082019050919050565b6000612d986038836137e8565b91507f4552433732313a20617070726f76652063616c6c6572206973206e6f74206f7760008301527f6e6572206e6f7220617070726f76656420666f7220616c6c00000000000000006020830152604082019050919050565b6000612dfe602a836137e8565b91507f4552433732313a2062616c616e636520717565727920666f7220746865207a6560008301527f726f2061646472657373000000000000000000000000000000000000000000006020830152604082019050919050565b6000612e646029836137e8565b91507f4552433732313a206f776e657220717565727920666f72206e6f6e657869737460008301527f656e7420746f6b656e00000000000000000000000000000000000000000000006020830152604082019050919050565b6000612eca6018836137e8565b91507f5468697320746f6f6c20646f6573206e6f7420657869737400000000000000006000830152602082019050919050565b6000612f0a6020836137e8565b91507f4552433732313a206d696e7420746f20746865207a65726f20616464726573736000830152602082019050919050565b6000612f4a6014836137e8565b91507f4d6f64656c207072696365206e6f7420706169640000000000000000000000006000830152602082019050919050565b6000612f8a602c836137e8565b91507f4552433732313a20617070726f76656420717565727920666f72206e6f6e657860008301527f697374656e7420746f6b656e00000000000000000000000000000000000000006020830152604082019050919050565b6000612ff06020836137e8565b91507f4f776e61626c653a2063616c6c6572206973206e6f7420746865206f776e65726000830152602082019050919050565b60006130306020836137e8565b91507f546865726520617265206e6f20747265657320696e2074686520666f726573746000830152602082019050919050565b60006130706029836137e8565b91507f4552433732313a207472616e73666572206f6620746f6b656e2074686174206960008301527f73206e6f74206f776e00000000000000000000000000000000000000000000006020830152604082019050919050565b60006130d6602f836137e8565b91507f4552433732314d657461646174613a2055524920717565727920666f72206e6f60008301527f6e6578697374656e7420746f6b656e00000000000000000000000000000000006020830152604082019050919050565b600061313c6021836137e8565b91507f4552433732313a20617070726f76616c20746f2063757272656e74206f776e6560008301527f72000000000000000000000000000000000000000000000000000000000000006020830152604082019050919050565b60006131a26031836137e8565b91507f4552433732313a207472616e736665722063616c6c6572206973206e6f74206f60008301527f776e6572206e6f7220617070726f7665640000000000000000000000000000006020830152604082019050919050565b60006132086016836137e8565b91507f5468697320746f6f6c206973206e6f74207265616479000000000000000000006000830152602082019050919050565b60a082016000820151613251600085018261330b565b5060208201516132646020850182613338565b5060408201516132776040850182613329565b50606082015161328a6060850182613338565b50608082015161329d608085018261330b565b50505050565b60a0820160008201516132b9600085018261330b565b5060208201516132cc6020850182613338565b5060408201516132df6040850182613329565b5060608201516132f26060850182613338565b506080820151613305608085018261330b565b50505050565b61331481613983565b82525050565b61332381613983565b82525050565b6133328161398d565b82525050565b6133418161399d565b82525050565b60006133538285612ac2565b915061335f8284612ac2565b91508190509392505050565b600060208201905061338060008301846129d4565b92915050565b600060808201905061339b60008301876129d4565b6133a860208301866129d4565b6133b5604083018561331a565b81810360608301526133c78184612a50565b905095945050505050565b600060208201905081810360008301526133ec81846129e3565b905092915050565b60006020820190506134096000830184612a41565b92915050565b600060208201905081810360008301526134298184612a89565b905092915050565b6000602082019050818103600083015261344a81612af3565b9050919050565b6000602082019050818103600083015261346a81612b33565b9050919050565b6000602082019050818103600083015261348a81612b99565b9050919050565b600060208201905081810360008301526134aa81612bd9565b9050919050565b600060208201905081810360008301526134ca81612c3f565b9050919050565b600060208201905081810360008301526134ea81612c7f565b9050919050565b6000602082019050818103600083015261350a81612ce5565b9050919050565b6000602082019050818103600083015261352a81612d25565b9050919050565b6000602082019050818103600083015261354a81612d8b565b9050919050565b6000602082019050818103600083015261356a81612df1565b9050919050565b6000602082019050818103600083015261358a81612e57565b9050919050565b600060208201905081810360008301526135aa81612ebd565b9050919050565b600060208201905081810360008301526135ca81612efd565b9050919050565b600060208201905081810360008301526135ea81612f3d565b9050919050565b6000602082019050818103600083015261360a81612f7d565b9050919050565b6000602082019050818103600083015261362a81612fe3565b9050919050565b6000602082019050818103600083015261364a81613023565b9050919050565b6000602082019050818103600083015261366a81613063565b9050919050565b6000602082019050818103600083015261368a816130c9565b9050919050565b600060208201905081810360008301526136aa8161312f565b9050919050565b600060208201905081810360008301526136ca81613195565b9050919050565b600060208201905081810360008301526136ea816131fb565b9050919050565b600060a08201905061370660008301846132a3565b92915050565b6000602082019050613721600083018461331a565b92915050565b6000604051905081810181811067ffffffffffffffff8211171561374e5761374d613b25565b5b8060405250919050565b600067ffffffffffffffff82111561377357613772613b25565b5b601f19601f8301169050602081019050919050565b6000819050602082019050919050565b600081519050919050565b600081519050919050565b600081519050919050565b6000602082019050919050565b600082825260208201905092915050565b600082825260208201905092915050565b600082825260208201905092915050565b600081905092915050565b600061380f82613983565b915061381a83613983565b9250827fffffffffffffffffffffffffffffffffffffffffffffffffffffffffffffffff0382111561384f5761384e613a98565b5b828201905092915050565b600061386582613983565b915061387083613983565b9250826138805761387f613ac7565b5b828204905092915050565b600061389682613983565b91506138a183613983565b9250817fffffffffffffffffffffffffffffffffffffffffffffffffffffffffffffffff04831182151516156138da576138d9613a98565b5b828202905092915050565b60006138f082613983565b91506138fb83613983565b92508282101561390e5761390d613a98565b5b828203905092915050565b600061392482613963565b9050919050565b60008115159050919050565b60007fffffffff0000000000000000000000000000000000000000000000000000000082169050919050565b600073ffffffffffffffffffffffffffffffffffffffff82169050919050565b6000819050919050565b600063ffffffff82169050919050565b600060ff82169050919050565b82818337600083830152505050565b60005b838110156139d75780820151818401526020810190506139bc565b838111156139e6576000848401525b50505050565b60006002820490506001821680613a0457607f821691505b60208210811415613a1857613a17613af6565b5b50919050565b6000613a2982613983565b91507fffffffffffffffffffffffffffffffffffffffffffffffffffffffffffffffff821415613a5c57613a5b613a98565b5b600182019050919050565b6000613a7282613983565b9150613a7d83613983565b925082613a8d57613a8c613ac7565b5b828206905092915050565b7f4e487b7100000000000000000000000000000000000000000000000000000000600052601160045260246000fd5b7f4e487b7100000000000000000000000000000000000000000000000000000000600052601260045260246000fd5b7f4e487b7100000000000000000000000000000000000000000000000000000000600052602260045260246000fd5b7f4e487b7100000000000000000000000000000000000000000000000000000000600052604160045260246000fd5b6000601f19601f8301169050919050565b613b6e81613919565b8114613b7957600080fd5b50565b613b858161392b565b8114613b9057600080fd5b50565b613b9c81613937565b8114613ba757600080fd5b50565b613bb381613983565b8114613bbe57600080fd5b50565b613bca8161399d565b8114613bd557600080fd5b5056fea264697066735822122066ede8564c95cdebedfce266d8984a9957e79e32a39054795004f23fc8f48db164736f6c63430008000033",
  "immutableReferences": {},
  "source": "// SPDX-License-Identifier: MIT\r\npragma solidity ^0.8.0;\r\n\r\nimport \"@openzeppelin/contracts/token/ERC721/ERC721.sol\";\r\nimport \"@openzeppelin/contracts/access/Ownable.sol\";\r\n\r\ncontract PolygonForest is ERC721, Ownable {\r\n  constructor() ERC721(\"PolygonForest\", \"FOREST\")\r\n  {}\r\n\r\n  uint[] prices = [0, 0.001 ether, 0.01 ether, 0.035 ether];\r\n  uint[] logsAdded = [0, 400, 2800, 10000];\r\n\r\n  uint forestSize; // 1 log = 1 cent\r\n  \r\n  struct Tool {\r\n    uint id;\r\n    uint8 model;\r\n    uint32 chopTime;\r\n    uint8 logsPerChop;\r\n    uint nextReady;\r\n  }\r\n\r\n  Tool[] tools;\r\n\r\n  mapping (address => uint) logBalance;\r\n\r\n  // Game Functions\r\n  function chop(uint _id) external {\r\n    require(ownerOf(_id) == msg.sender, \"You do not own this tool\");\r\n\r\n    Tool storage tool = tools[_id];\r\n    require(block.timestamp >= tool.nextReady, \"This tool is not ready\");\r\n    require(forestSize > 0, \"There are no trees in the forest\");\r\n\r\n    tool.nextReady = block.timestamp + tool.chopTime;\r\n    logBalance[msg.sender] += tool.logsPerChop;\r\n\r\n    if (forestSize < tool.logsPerChop) {\r\n      forestSize = 0;\r\n    } else {\r\n      forestSize -= tool.logsPerChop;\r\n    }\r\n  }\r\n\r\n  function cashout() external payable {\r\n    uint logs = logBalance[msg.sender];\r\n    if (logs > 0) {\r\n      uint ethPerLog = 0.0000025 ether;\r\n      uint cashoutMoney = ethPerLog * logs;\r\n      payable(msg.sender).transfer(cashoutMoney);\r\n      logBalance[msg.sender] = 0;\r\n    }\r\n  }\r\n\r\n  // Mint Functions\r\n  function mint(uint8 _model, uint32 _chopTime, uint8 _logsPerChop) private {\r\n    uint id = tools.length;\r\n\r\n    Tool memory newTool = Tool(id, _model, _chopTime, _logsPerChop, block.timestamp);\r\n    \r\n    _safeMint(msg.sender, id);\r\n\r\n    tools.push(newTool);\r\n  }\r\n  \r\n\r\n  function mintTool(uint8 _model) external payable {\r\n    require(_model >= 0 && _model < 4, \"Model number is not valid\");\r\n    require(msg.value >= prices[_model], \"Model price not paid\");\r\n    if (_model == 0) { // Hatchet\r\n      mint(_model, 12 hours, 1);\r\n    } else if (_model == 1) { // Axe, \r\n      mint(_model, 2 hours, 5);\r\n    } else if (_model == 2) { // Saw\r\n      mint(_model, 30 minutes, 2);\r\n    } else if (_model == 3) { // Chainsaw\r\n      mint(_model, 1 hours, 50);\r\n    }\r\n    forestSize += logsAdded[_model];\r\n  }\r\n\r\n  // Fetch Functions\r\n  function getForestSize() external view returns (uint) {\r\n    return forestSize;\r\n  }\r\n\r\n  function getTool(uint _id) external view returns (Tool memory) {\r\n    require(_exists(_id), \"This tool does not exist\");\r\n    return tools[_id];\r\n  }\r\n\r\n  function getOwnedTools(address _address) external view returns (Tool[] memory) {\r\n    uint toolCount = balanceOf(_address);\r\n    if (toolCount == 0) {\r\n      return new Tool[](0);\r\n    } else {\r\n      Tool[] memory ownedTools = new Tool[](toolCount);\r\n      uint toolsAdded = 0;\r\n      for (uint i = 0; i < tools.length; i++) {\r\n        if (ownerOf(i) == _address) {\r\n          ownedTools[toolsAdded] = tools[i];\r\n          toolsAdded++;\r\n        }\r\n      }\r\n      return ownedTools;\r\n    }\r\n  }\r\n\r\n  function getLogBalance() external view returns (uint) {\r\n    return logBalance[msg.sender];\r\n  }\r\n\r\n  // Admin Functions\r\n  function withdraw() external payable onlyOwner {\r\n    address payable owner = payable(owner());\r\n    owner.transfer(address(this).balance);\r\n  }\r\n}",
  "sourcePath": "C:\\Users\\richa\\Desktop\\games\\polygonforest\\contracts\\PolygonForest.sol",
  "compiler": {
    "name": "solc",
    "version": "0.8.0+commit.c7dfd78e.Emscripten.clang"
  },
  "schemaVersion": "3.4.3",
  "updatedAt": "2021-09-26T03:25:52.021Z",
  "networkType": "ethereum",
  "devdoc": {
    "kind": "dev",
    "methods": {
      "approve(address,uint256)": {
        "details": "See {IERC721-approve}."
      },
      "balanceOf(address)": {
        "details": "See {IERC721-balanceOf}."
      },
      "getApproved(uint256)": {
        "details": "See {IERC721-getApproved}."
      },
      "isApprovedForAll(address,address)": {
        "details": "See {IERC721-isApprovedForAll}."
      },
      "name()": {
        "details": "See {IERC721Metadata-name}."
      },
      "owner()": {
        "details": "Returns the address of the current owner."
      },
      "ownerOf(uint256)": {
        "details": "See {IERC721-ownerOf}."
      },
      "renounceOwnership()": {
        "details": "Leaves the contract without owner. It will not be possible to call `onlyOwner` functions anymore. Can only be called by the current owner. NOTE: Renouncing ownership will leave the contract without an owner, thereby removing any functionality that is only available to the owner."
      },
      "safeTransferFrom(address,address,uint256)": {
        "details": "See {IERC721-safeTransferFrom}."
      },
      "safeTransferFrom(address,address,uint256,bytes)": {
        "details": "See {IERC721-safeTransferFrom}."
      },
      "setApprovalForAll(address,bool)": {
        "details": "See {IERC721-setApprovalForAll}."
      },
      "supportsInterface(bytes4)": {
        "details": "See {IERC165-supportsInterface}."
      },
      "symbol()": {
        "details": "See {IERC721Metadata-symbol}."
      },
      "tokenURI(uint256)": {
        "details": "See {IERC721Metadata-tokenURI}."
      },
      "transferFrom(address,address,uint256)": {
        "details": "See {IERC721-transferFrom}."
      },
      "transferOwnership(address)": {
        "details": "Transfers ownership of the contract to a new account (`newOwner`). Can only be called by the current owner."
      }
    },
    "version": 1
  },
  "userdoc": {
    "kind": "user",
    "methods": {},
    "version": 1
  }
}